:100000000000022099010000657C00001D7C0000BA
:100010001D7C00001D7C00001D7C00001D7C00007C
:100020001D7C00001D7C00001D7C0000657C000024
:10003000657C00001D7C0000D1970000D598000071
:10004000657C0000657C0000657C0000657C00002C
:10005000657C0000657C0000657C0000657C00001C
:10006000657C0000657C0000657C0000657C00000C
:10007000657C0000657C0000657C0000657C0000FC
:10008000657C0000657C0000657C0000657C0000EC
:10009000657C0000657C0000657C0000657C0000DC
:1000A000CD640000D9640000657C0000657C000020
:1000B000657C0000657C0000657C0000059E0000FA
:1000C000657C00005D860000657C00004D890000B5
:1000D000657C0000319F0000657C0000657C0000AD
:1000E000657C0000657C0000657C0000657C00008C
:1000F000657C0000657C0000657C0000657C00007C
:10010000657C0000657C0000657C0000657C00006B
:10011000657C0000958B0000657C0000657C00001C
:10012000657C0000657C0000657C0000657C00004B
:10013000657C0000657C0000657C0000657C00003B
:10014000657C0000657C000029A00000657C000043
:1001500021A10000657C0000657C0000657C00003A
:10016000657C0000657C0000E5640000657C0000A3
:10017000657C0000657C0000657C0000657C0000FB
:10018000657C0000C9580000657C0000657C0000AB
:10019000657C0000657C0000584B4CF2205210B585
:1001A0001A804DF628121A8000BF00BF00F0F4F943
:1001B000534B4FF030621A60524A9A60524ADA60EA
:1001C000524B4FF470021A60514A136813F4807353
:1001D00004D150490B604FF4A85313604E4B1A786A
:1001E000110703D51A7842F008021A704B4B4C499C
:1001F0002A221A704B4A4C4B8B4204D252F8040FFD
:1002000043F8040BF8E7494B494900228B4202D2DC
:1002100043F8042BFAE74749474A002352F82300E2
:1002200041F823000133662BF8D1444B444A802126
:1002300003F8011B9342FBD1424B3E4A1A60424BEA
:100240008A221A70A3F5805324225A70A0221A70B1
:100250009A799207FCD59A79D406FCD43B4A9379D3
:1002600003F00C03082B394BF9D103221A714622F3
:100270005A719A799006FCD5344A9179334B4906E4
:10028000FBD5334A4FF08271116009215160202261
:100290001A709A7902F00C020C2AFAD12D4B2E4AD0
:1002A0001A602E4B2E4A1A6000225A60072243F829
:1002B000042C2C4AC3F80C2D62B607F013FE154B24
:1002C0001B68DA0705D5284807F070FD274B284A38
:1002D0001A60284B1B785B0609D5244C244B2268F6
:1002E0009A4204D1204807F061FD002323600CF0FE
:1002F000D5FA07F0BBFC09F0E3FCFEE70E20054051
:1003000030800440823F04000100002B88ED00E0B3
:1003100010D0034014D0034002D0074000E0074053
:100320000815FF1F1C370100F806FF1F0815FF1FE7
:100330004425FF1F0002FF1F0000000000E400E052
:1003400056E400E008ED00E00050064000400640A2
:100350004480044004800440C010050014E000E024
:10036000BFD4010000002020EF2D7E5A1CE0034086
:10037000A5C3945A00F00740FFFFFFFFFFFFFFFFF8
:10038000FFFFFFFFFFFFFFFFFFFFFFFFFFFFFFFF7D
:10039000FFFFFFFFFFFFFFFFFFFFFFFFFFFFFFFF6D
:1003A000FFFFFFFFFFFFFFFFFFFFFFFFFFFFFFFF5D
:1003B000FFFFFFFFFFFFFFFFFFFFFFFFFFFFFFFF4D
:1003C000FFFFFFFFFFFFFFFFFFFFFFFFFFFFFFFF3D
:1003D000FFFFFFFFFFFFFFFFFFFFFFFFFFFFFFFF2D
:1003E000FFFFFFFFFFFFFFFFFFFFFFFFFFFFFFFF1D
:1003F000FFFFFFFFFFFFFFFFFFFFFFFFFFFFFFFF0D
:10040000FFFFFFFFFFFFFFFFFFFFFFFFDEF9FFFF23
:1004100010B5054C237833B9044B13B10448AFF33E
:1004200000800123237010BD0815FF1F000000008D
:1004300018370100084B10B51BB108490848AFF345
:1004400000800848036803B910BD074B002BFBD0A0
:10045000BDE81040184700BF000000000C15FF1F4A
:10046000183701000815FF1F0000000008B50A48F2
:1004700001F06EFF094B0021187807F0BDFC084B16
:100480000121187807F0B8FC064B00211878BDE868
:10049000084007F0B1BC00BF641401000007FF1F53
:1004A000F806FF1FFC06FF1F014801F051BF00BF07
:1004B00078140100014801F04BBF00BF881401000F
:1004C0000A460146014801F043BF00BF94140100F1
:1004D000014801F03DBF00BFC4140100014801F014
:1004E00037BF00BFD41401000146014801F030BFFE
:1004F000E014010010B5104C0121207807F07CFCBD
:100500004FF4FA6007F0A0FC2078012107F060FCAE
:100510004FF47A6007F098FC2078002107F06CFC1B
:10052000064A137840F6B83083F00103BDE8104066
:10053000137007F089BC00BFFC06FF1F2415FF1FC6
:1005400010B5094C0121207807F056FC20780021D5
:1005500007F03EFCFA2007F077FC20780021BDE888
:10056000104007F049BC00BF0007FF1F08B508484E
:1005700001F0EEFE074B1B780BB9FFF7BBFFFFF74F
:10058000DFFF4FF4FA60BDE8084007F05DBC00BF34
:10059000EC1401002415FF1F464A474B1020108021
:1005A0001B781B0734D5F0B5444E454D454C31788A
:1005B0002B782278DFF82CE1434F824042EA032374
:1005C0000B43FF22802132702A7022708EF80010B7
:1005D0003970D9073D4A14D51A2393603C4F3D4EDC
:1005E0003D4D3E4C3E49107900233B705370937053
:1005F000D370D360337013712B7023701370087035
:10060000F0BD1F0705D4DE0606D504239360E5E799
:10061000704721239360E1E79D0604D45C0604D56E
:1006200016239360DAE79060D8E7180602D509230D
:100630009360D3E7D90502D50A239360CEE79F05DF
:1006400002D50D239360C9E75E0502D50B239360A5
:10065000C4E71D0502D51E239360BFE7DC0402D565
:1006600002239360BAE7980402D507239360B5E7A5
:10067000590402D506239360B0E71F0402D5152361
:100680009360ABE7DE0302D524239360A6E79D03C6
:1006900002D522239360A1E7DC0202D525239360D3
:1006A0009CE71803F5D45903F3D49B0244BF2323DA
:1006B000936093E70020054002D0074005C0074043
:1006C00006C0074007C0074009C007401C25FF1FA0
:1006D00000C0074001C0074002C0074003C00740F8
:1006E00004C0074008C0074008B501F0B5FB00F0A2
:1006F0009DFB104801F008FE0F4801F005FE0F4871
:1007000001F002FE0E4801F0FFFD00F0CDF800F010
:10071000E3FB01F015FC01F0F5FE00F09DFE01F099
:100720008FF800F041F8FFF7A1FE064B01221A7086
:1007300008BD00BFFC140100101501005C1501008C
:10074000702601002615FF1F08B500F0D5FE01F048
:100750005BFF00F03BF801F0DDFC074B1B780BB9A9
:1007600001F0A6F801F082FB00F02AFC00F060FB2B
:10077000BDE8084000F008B92515FF1F074B1B789E
:100780000BB90120704710B5054C01232370FFF70A
:10079000DBFF00232370012010BD00BF2615FF1FC3
:1007A0002515FF1F07F0F2B906A1D1E90001044B9E
:1007B000C3E90001C3E90201704700BFAFF3008045
:1007C0002815FF1F0000000000408FC010B5172043
:1007D0002DED028B07F05CF907EE900A9FED137A7E
:1007E0009FED138A134CF8EEE77A67EE877A67EE8F
:1007F000887A17EE900A0BF0CBFCC4E90001FF20C9
:1008000007F046F907EE900AF8EEE77AB1EE047ABF
:1008100067EE877A67EE887A17EE900A0BF0B8FCDD
:10082000BDEC028BC4E9020110BD00BF3333D340DD
:100830000000803A2815FF1F004870472815FF1F49
:10084000F8B5164B00244FF0FF3507E01E688E42C6
:1008500003F10C030ED00134082C1CD06E1CF5D112
:1008600053F8046C002E08BF25461E688E4203F123
:100870000C03F0D125460C46074629460848164683
:1008800005EB450501F040FD064AAD0053195751EF
:100890005C609E60F8BD6B1CEDD1F8BD3C15FF1F80
:1008A000881501003815FF1F10B5244C244801F0AD
:1008B0004FFD204601F04CFD224801F049FD224841
:1008C00001F046FD204601F043FD204801F040FDC7
:1008D000204601F03DFD1E4801F03AFD1D4801F0A3
:1008E00037FD1D4801F034FD1C4801F031FD204664
:1008F00001F02EFD1A4801F02BFD1A4801F028FDE9
:10090000194801F025FD194801F022FD184801F0B1
:100910001FFD184801F01CFD174801F019FD17488C
:1009200001F016FD164801F013FD164801F010FD08
:100930002046BDE8104001F00BBD00BF702601004D
:10094000AC150100C0150100F015010014160100DE
:10095000281601004C16010088160100AC16010093
:10096000CC160100F41601002C17010064170100D9
:10097000A0170100C41701000C1801005418010051
:1009800088180100C81801002DE9F047344B354D97
:100990001B68DFF8D89082B005F108040193DDF8F8
:1009A00004A005F1680600274FF47A7854F8083C53
:1009B000ABB1C3EB0A034B4511D854F8043C052BEB
:1009C00009D8DFE803F0403B36312C03A868FFF775
:1009D0008BFD54F8043C022B12D044F8087C0C34F4
:1009E000B44205F10C05E1D11F4C2368013304D05A
:1009F00000F060FE90F83C3053BB02B0BDE8F087D9
:100A0000AA68531CE9D054F8083C08FB023344F8A8
:100A1000083C0C34B44205F10C05C7D1E4E7FFF7FC
:100A20005DFD54F8043CD6E7FFF7A0FD54F8043C04
:100A3000D1E7FFF74DFD54F8043CCCE7FFF73AFD52
:100A400054F8043CC7E7FFF72FFD54F8043CC2E715
:100A5000016A2068FFF734FD02B0BDE8F08700BFEF
:100A6000C820FF1F3815FF1F0407FF1FFEFFFF7F71
:100A70002DE9F047A4B00146054604AC844801F0D6
:100A800043FC2946204680220DF0A8F89DF810303E
:100A90000094002B56D07F4E00277F4968460DF00A
:100AA000D1F801900278303A092A034640F2B68024
:100AB0000025A9465A1C019259781C78A1F13003EF
:100AC000092B40F293802C294FF0FF3800F09980D9
:100AD0004FF0FF3A33680393039B704821461D444F
:100AE00001F012FC49466E4801F00EFC41466D488B
:100AF00001F00AFC51466C4801F006FC3368029391
:100B000002996A4801F000FC413C2946684801F01E
:100B1000FBFB152C62D8DFE804F05D493D616161A3
:100B20006161376161612B61611C61616161610BB0
:100B3000B8F1000F7DD1424628460421FFF780FE20
:100B4000009BEBB95B4801F003FC012024B0BDE839
:100B5000F087B8F1000F7DD1574B03F160011A689F
:100B6000022A08BF43F8047C0C338B42F7D104E01F
:100B7000424628460521FFF763FE009B002BE1D08B
:100B80001B78002B89D1DDE7B8F1010F68D001F0A7
:100B9000EDF8F2E752464146484801F0D9FBB8F17A
:100BA000030FEAD8DFE808F064696E5F0022284688
:100BB0001146FFF745FEB8F1FF3F1ABF4FF47A70B8
:100BC00000FB08F042F21070284400220121FFF7D8
:100BD00037FED2E73A4BC3F80080CEE70199394897
:100BE00001F0B6FB002024B0BDE8F087104601A953
:100BF0000A220DF0CDF9019A11782C2980467FF454
:100C000067AF501C01905378303B092B3FF660AF23
:100C10000A2201A90DF0BCF982465BE70A2201A96C
:100C20000DF0B6F94EF66025814605FB00F5019BF7
:100C300040E7002203212846FFF702FEB8F1FF3FFC
:100C40009BD04EF6602000FB085000220421FFF7E5
:100C5000F7FD92E7424628460221FFF7F1FD8CE7B7
:100C600001F08AF889E71FFA8AF001F06BF884E74F
:100C70001FFA8AF001F05CF87FE71FFA8AF001F0B2
:100C80004DF87AE71FFA8AF001F066F875E700BFC1
:100C9000FC180100C820FF1F3019010034190100A1
:100CA0004C1901005C1901006C1901007C1901004C
:100CB0008C1901001C1901003C15FF1FA01901002F
:100CC0000407FF1FC819010030B583B002AC054608
:100CD0000146484801F03CFB44F8045D4649204683
:100CE0000CF0B0FF4449054620460CF0ABFF4349E9
:100CF000044628460CF0A2FC002833D14049204687
:100D00000CF09CFC00284BD03E4920460CF096FC91
:100D1000002853D03C4920460CF090FC002845D0D8
:100D20003A4920460CF08AFC00284CD0384920462D
:100D30000CF084FC002845D02378C3B900F0AAF851
:100D4000002853D000F0A6F881074BD400F0A2F899
:100D5000C20743D400F09EF843073BD42D4801F06E
:100D6000D3FA20E02C4928460CF068FC20B1284634
:100D7000FFF77EFE03B030BD214920460CF05EFC3B
:100D8000C0B1204920460CF059FCF8B120461E495C
:100D90000CF054FC0028EAD1042001F029FB02E009
:100DA000022000F07DF8012003B030BD042000F0E7
:100DB00077F8F8E7022001F01BFBF4E7012000F0D0
:100DC0006FF8F0E7072000F06BF8ECE7012001F086
:100DD0000FFBE8E7114801F097FABFE7104801F070
:100DE00093FAB7E70F4801F08FFAAFE70E4801F02A
:100DF0008BFAA7E7E0190100F41A0100FC190100C1
:100E0000041A0100101A0100181A0100201A01002A
:100E1000281A010070260100541A01004C1A010022
:100E2000401A0100341A01002C1A0100704700BF5B
:100E3000F8B5164D164E2F4608F0A6FB134CA0B180
:100E400008F07EFBC0B20D284FF000030ED00A2838
:100E50000CD02B684F2B03F101020FD03A60F054F5
:100E600008F092FB094C0028EAD1F8BD2A68074C2B
:100E7000B354002A05DC00232360DDE7002386F855
:100E80004F300348FFF720FFF5E700BFE815FF1FCD
:100E90009815FF1F014B1878704700BF0807FF1F08
:100EA000014B1870704700BF0807FF1F08F0FEBB1A
:100EB00010B504460CF024FE01462046BDE8104063
:100EC00008F070BBFFF7F4BF4FF0FF31014806F0A8
:100ED000DFB900BFF415FF1F38B5274C2748FFF7CF
:100EE000E7FF3C2220460221012306F059FA244B59
:100EF000012520461D7006F0E3F92046002106F08A
:100F00007BFB204606F0DCF92946204605F024FF4D
:100F10002946204605F026FF204606F075FB0022F4
:100F20002046114605F014FF10221649204608F00D
:100F30007FFD204608F090FD0F221349204608F05F
:100F400077FD204608F088FD204606F05DFB4FF453
:100F5000FA6006F079FF204606F0B2F9002220463A
:100F6000114605F0F5FE204606F04EFB0748BDE8A9
:100F70003840FFF79DBF00BFF415FF1F5C1A01004A
:100F8000EC15FF1F701A0100841A0100941A010069
:100F9000084B1B7803B9704710B504460CF0B0FD40
:100FA00021460246044808F043FD0348BDE81040CE
:100FB00006F02ABBEC15FF1FF415FF1FFFF7E8BF73
:100FC0002DE9F047064F074A3B68116884B000934B
:100FD000009B5B1AB3F5FA7F06D204B0BDE8F08738
:100FE000C820FF1FF015FF1F3B680293029D3B685E
:100FF0000193BB4C019BBB48136006F061F9A4FB55
:101000000534B94BB94EB748DFF80493DFF82483B1
:10101000A409A3FB053A0022A6FB04354FEA5A5A5D
:101020004FF46163114603FB1A43A6FB033605F038
:101030008FFEAF4BAF49AB48BAF1090F9ABF1946C3
:101040000122002208F0F4FC760951460A2200230E
:10105000A44808F011FD6D09092E8BBF0122022260
:1010600049464146C5EB05159E4808F0E1FCA4EB56
:10107000850531460A2200239A4808F0FDFC092D17
:101080008BBF4946414601220222964808F0D0FC17
:1010900029460A220023934808F0EEFC04F00104DC
:1010A000012295498F4808F0C3FC002C40F0738161
:1010B00092498C48032208F0BBFC00F01FFE90F818
:1010C0003031002B40F083818D498648032208F09F
:1010D000AFFC00F057FE002800F06681894B85497F
:1010E0008048002C1ABF19460522002208F0A0FCF7
:1010F0007C4808F0B1FC052283497A4808F098FC46
:1011000000F0D8FA056C00F0D5FA90F83C30002BCE
:1011100000F03581724AEB1782FB0525C3EBA5155C
:101120000F2D40F3CD80002C40F05A8129466D48A8
:1011300008F0E2FCB5F57A7FC0F2658101226E49C4
:10114000684808F075FC03227049664808F070FC96
:101150003B680393039D00F0D1FD866800F0CEFD4F
:101160008368002B00F002815D4BAD1BA3FB0523C0
:101170009B09B3F5617F02D9002C40F037815B4DAC
:101180005B4F5C4E574885FB03251D446D110A2DAE
:10119000B5BF0122002239463146C5EB0514A3EB49
:1011A000840408F045FC40F2E731A94228BF2946F3
:1011B00000230A224B4808F05FFC012254494948A9
:1011C00008F036FC0A2CB5BF394631460122002210
:1011D000444808F02DFC214600230A22414808F02B
:1011E0004BFC404808F038FC05224A493D4808F0CD
:1011F0001FFC00F05FFA026A42F20F739A4240F35A
:10120000C48000F057FA036A002B40F09580042256
:101210004149344808F00CFC03224049314808F0A9
:1012200007FC01F069FA00220023D0E902010BF06B
:1012300089FA20B1012230492A4808F0F9FB01F06F
:101240005BFA25A3D3E90023D0E902010BF05CFA95
:1012500000287DD005223249224808F0E9FB2148C8
:1012600008F0FAFBFFF7E8FA022190ED000B1D48A9
:1012700008F04AFC05222B491A4808F0D9FB00F077
:101280003DFD0023D0F8281116480A2208F0F4FB8F
:1012900004222549134808F0CBFB01F02DFA012167
:1012A00090ED000B0F4808F02FFC01221F490D485C
:1012B00008F0BEFB0B4806F0A7F904B0BDE8F087C4
:1012C000092D00F39C8006221949064808F0B0FB5E
:1012D00039E700BFAFF300800000000000408FC07E
:1012E000D34D6210F415FF1FB17C21958988888841
:1012F000A41E01004C260100F41A0100A41A0100EA
:10130000AC1A0100B41A0100C41A0100E41A010069
:101310001C1B0100F81A0100001B01000C1B01003E
:10132000101B0100181B0100201B0100F826010002
:10133000DC1A01009C1A010000F0BCF9016A39486E
:1013400008F0DAFB02223849364808F071FB63E7FF
:1013500001F0D2F9012190ED020B324808F0D4FBE4
:10136000012232492F4808F063FB78E70522304913
:101370002C4808F05DFB2B4808F06EFB34E7062292
:101380002C49284808F054FBDDE601222A4925486B
:1013900008F04EFB35E700F0B1FC90F83031002B3F
:1013A0003FF486AE254984E600F0C4FD00283FF4F2
:1013B000A2AE234B23491B48002C1ABF1946062214
:1013C000002208F035FB174808F046FB93E60B2097
:1013D00006F004FD1C4B1D49012818BF194674E690
:1013E00006221B490F4808F023FBACE605221949E9
:1013F0000C4808F01DFB0B4808F02EFBF4E62946CC
:10140000084808F079FB01220B49064808F010FB58
:10141000632D3FF793AE01220749024808F008FB0D
:101420008CE600BFF415FF1F081B0100F826010021
:10143000E81A0100CC1A0100F41A0100A01A0100F8
:10144000BC1A01004C260100A81A0100B01A0100C4
:10145000D41A0100F01A01002DE9F0412148224C74
:1014600082B0FFF725FD1F48FFF792FD0021032002
:1014700006F0C2FC43F2D40007F0C8F933211B4840
:1014800007F00AFA23680093009E64274FF00008D3
:1014900041F2873523680193019B9B1BAB420BD91B
:1014A000052001F03DF91248FFF70CFD1148FFF748
:1014B00085FD02B0BDE8F08107F004FA0028E9DDFF
:1014C00007F010FAC0B20D2807D00A2805D0B8F1ED
:1014D000000F02D1013FE6D0DCE7FFF7E7FC4FF059
:1014E0000108F7E7281B0100C820FF1F381B010077
:1014F0006C1B0100781B0100F0B52DED028B674DD0
:1015000089B02B680193019E002433469B1BB3F5E1
:101510007A7F0CD807F0D6F9002840F082802B683B
:101520000393039B002CF1D01A1B642AEED95C4E66
:10153000737823B996F83930002B00F0A88058480A
:10154000584C9FED598A02F08FFC554884ED040BEE
:1015500002F0B0FC554884ED060B02F0D1FC20608F
:10156000524802F0DDFC2071504802F0EDFC607141
:101570004F4802F0F5FCA0714D4802F0FDFCE0710F
:101580004B4802F011FD2072494802F021FDD6EDD2
:10159000207A6072F8EEE76AD6ED1C7AB8EEE77A48
:1015A000C6EE887A002786F8797086F86970C7EEEB
:1015B000086AFDEEE77A16EE900AC4ED087A0AF0A2
:1015C000E7FDD6ED187A86F85970F8EEE77AC4E9A7
:1015D0000A0187EE887A17EE100A0AF0D9FDC4E9ED
:1015E0000C01D6F8903086F88970A36333782C49C3
:1015F00013B191F83830E3B900234FF0FF3284F88B
:101600003C3084F83D302264D6F8D030636409B0B1
:10161000BDEC028BF0BD07F065F9C1B2204802F0C5
:10162000E9FA07F04FF90028F5DC2B680293029CD9
:1016300075E791F84830002BDED091F87830002B18
:10164000DAD02B68049304984F6B144BC01B012213
:10165000B0F5FA6F84F83C2009D81B680593059A09
:101660004B6CD21AB2F5FA6F94BF002201222B689C
:101670000693069B296807910799706C84F83D20B2
:10168000DB1B0A1A934238BF13462364BCE796F863
:101690004930002B7FF453AF024CA7E7C820FF1F4F
:1016A0006816FF1F2016FF1F0000C842A016FF1F6C
:1016B000B016FF1F004870472016FF1FFFFFFFFFF7
:1016C00008B5094801F0BAFF05A1D1E90001074BAF
:1016D000074A1A62C3E90401C3E9060108BD00BF55
:1016E0000000000000408FC06816FF1F2016FF1F7B
:1016F000E0B1FFFF2DE9F043454E83B07F2305465F
:101700000C4644480193002186F83111914600F0BF
:101710001FFE2A462146404800F01AFE3D4800F0D0
:1017200017FE3E4801F036F8002850D1384C3B48AF
:10173000294601AB04F231124FF0010886F83081DE
:1017400001F068FF364B00250746186086F83051D7
:1017500030BBD4F8283133484344C4F8283100F072
:10176000F7FD94F8313143B3019B2F48234404F231
:10177000311183F8317100F0EBFDD4F8B43104F28B
:1017800031104344C4F8B431FFF772F9A84214BFD2
:1017900043460223404689F8003003B0BDE8F08399
:1017A000D4F82C31214801333946C4F82C3100F0EB
:1017B000CFFD284603B0BDE8F08389F80030174814
:1017C00001F076F878B9404603B0BDE8F0831848D8
:1017D00000F0BEFD114801F0C7FB68B94FF4FA6094
:1017E00006F032FBA2E70146124800F08DFD1248D8
:1017F000FFF7E4FB4046DDE70146104800F084FDBA
:101800000D48FFF7DBFB022000F08AFFE6E700BF90
:101810007817FF1F801B0100AC1B01004017FF1F42
:101820003419FF1F041C0100141C0100481C010096
:10183000DC1B0100301C0100D0230100EC1B010067
:1018400008B5144800F060FD1348FFF7B7FB01210D
:10185000124800F0A3FF43F2D40006F0D7FB0F4874
:101860005A2100F0A5FF0D4801F07EFB48B101466A
:101870000B4800F049FD0B48FFF7A0FB022000F0E9
:101880004FFF094800F040FD0848BDE80840FFF759
:1018900095BB00BF581C0100701C01004017FF1FC2
:1018A000EC1B0100D0230100941A0100801C0100F0
:1018B0002DE9F04F9BB0FFF7FDFE0646FEF7BCFF9B
:1018C000AB4FAC4CAC4D834600F016FF3B68179312
:1018D000179B10933B681893DDF860A0A368A74A94
:1018E000C3EB0A03A2FB03239B0900228146A44801
:1018F0000F936A718DF85B2001F0DEF81190FFF70D
:10190000D9FEA04B9A45804690F83C3000F2E78023
:10191000002B00F0C980D8F83830042B00F39181F7
:10192000D8F820A0AB69984A934200F07E815345D5
:10193000C0F27B81A368002B00F07D818D4B93ED7D
:10194000047B89A3D3E9002351EC170B8DED127BA7
:101950000AF0DAFE002840F06E81864B93ED067B9C
:1019600081A3D3E9002351EC170B8DED147B0AF012
:10197000CBFE002840F05F817E4A834B126A9A4278
:1019800000F059819DED143B9DED122B98ED061B47
:1019900098ED040B02F098F9764BD8F820A01B6A5A
:1019A0001293CAEB0303002BB8BF5B4214932B6165
:1019B00051EC100B85ED020B0022744B0AF0CCFEAB
:1019C000002840F07F81149B642B00F37B810F9BE8
:1019D0000A2B40F23081684B1B79002B00F02B81E1
:1019E0006549022203460A606B71DFF8CCA19AF8C0
:1019F0000030002B7CD1A3685E49002B00F03781BA
:101A00006B69AA6903F2E733934280F2A1802A68E6
:101A10005948012A00F02F81417921B1D8F82010CE
:101A20008B4280F23881022A00F01581119B002B35
:101A300000F03581564800F08BFC514800F0ACFEB8
:101A4000002806DD4E4800F0A7FE0146514800F090
:101A50007FFC96F83C30002B51D1D9E90023CDE929
:101A600002239BED007BD4F8B4314B4A4B488DEDFB
:101A7000007B80210BF06EFD3E4D494905F12400AD
:101A80000DF15B02FFF736FE70B1D6E90623D6E909
:101A90000401C5E90623C5E90401109B326AAB6065
:101AA00000232A628AF800303B681993199AD4F807
:101AB000A4303C4D31482978DFF8B880D31AA0FB18
:101AC00003239F09002979D1B8F8061021B1C1EB91
:101AD0000113B7EB830F7CD21BB0BDE8F08F002B56
:101AE0007FF419AFDFF8D0A09AF80030002B82D035
:101AF0002D4800F02DFC96F83C30002BADD0D9E9F4
:101B00000023CDE90C23DBE90023CDE90A23336A66
:101B10000893D6E90623CDE90623D6E90423CDE9C7
:101B20000423337AD4F8B4110293204BF279019252
:101B300083FB0123CA17B0790090C2EB63126423C0
:101B400003FB121315481A4A80210BF003FD93E79B
:101B500009880F98C1EB0112B0EB820FFFF457AF69
:101B6000144800F0F5FB74E70000000000408FC04F
:101B7000C820FF1F7817FF1F3819FF1FD34D6210B1
:101B80004017FF1FDF930400E0B1FFFF00408F40CC
:101B9000B41E0100AC1D0100E01D01009C17FF1FD9
:101BA0001C1E01005819FF1F841C01001F85EB51EA
:101BB000F41D0100CC1C01003019FF1F434800F048
:101BC000C7FBB8F8061039B13C2303FB01F3BB4255
:101BD00002D83F4800F0BCFBD6E90C23CDE9062330
:101BE000D6E90A23CDE90423B36B0293D9E90001B6
:101BF000D4F8B431374C384ACDE90001802104F1E2
:101C0000A8000BF0A7FC04F1A8000DF15B0233491A
:101C1000FFF770FD00283FF45FAF109AC4F8A420CE
:101C200000232B701BB0BDE8F08FA368C5F818A087
:101C3000002B7FF483AE2B68012B37D000236B7110
:101C4000D3E66A69264B2749D8F820A09A4208BFF4
:101C5000C1F814A066E6A1880F9AC1EB0113B2EB9C
:101C6000830FFFF4E3AE204800F072FBF1E61F485B
:101C700000F06EFBEDE661880F9DC1EB0112B5EB44
:101C8000820F1BD24279002A3FF4D0AED8F8202030
:101C90009342FFF6CBAE164800F05AFBD9E6154842
:101CA00000F07AFD00283FF7C8AEFDE6236A1293E4
:101CB000129B9A45C2DA01236B7196E60E4800F03A
:101CC00047FBC6E601232B602B71F1E7241E0100C0
:101CD0004C1E01007817FF1F8C1E0100A81E01007A
:101CE000E0B1FFFF3819FF1F801D0100AC1C01008F
:101CF000401D01004017FF1F081D010000487047EC
:101D00007817FF1F004870473819FF1F084600F07A
:101D100059BB00BF084600F03FBB00BF024B014665
:101D20000248598000F0F0BA7817FF1FD81E010052
:101D3000024B01460248198000F0E6BA7817FF1FEF
:101D4000F41E0100024B01460248D98000F0DCBAC3
:101D50007817FF1F101F0100024B014602489980AF
:101D600000F0D2BA7817FF1F301F0100014B01228B
:101D70001A7070473019FF1F014B01221A7070470B
:101D80005819FF1F034B1868A0F10300B0FA80F048
:101D9000400970473419FF1FF8B51D4C1D4B2360D7
:101DA00001221E200C274FF496734FF0FF351A4E78
:101DB000E36060600023A060114638462561E5615C
:101DC0002563227584F82020637584F8213084F817
:101DD00022306362A761A662E66206F00DF8E06950
:101DE000A84203D0C0B2022106F006F80B4B0C4A01
:101DF0000C48506100211E2605250F241E805D80A1
:101E00009C80D980C3F8B411116011719061F8BD44
:101E10004017FF1FA80AFF1FE02601007817FF1FC9
:101E20003819FF1FE0B1FFFF002814DD38B5054663
:101E3000002401210D2005F0CBFFC82006F004F896
:101E400000210D2005F0C4FF0134C82005F0FCFF7F
:101E5000A542EED138BD704708B50D20012105F02F
:101E6000CBFF0220BDE80840FFF7DEBF00B583B01E
:101E7000FFF744FF90F8303173B10C4B0C491B68ED
:101E80000193019BA1FB0331C1F380110D2005F0EB
:101E90009FFF03B05DF804FBFFF70CFC90F83C10CB
:101EA0000D2005F095FF03B05DF804FBC820FF1F6F
:101EB000D34D621000207047704700BF027C02F0D3
:101EC000080202F0FF0332B1C36A406A181A48BF21
:101ED0006FF0004070471846704700BF103002F0A6
:101EE0004DBC00BF103002F04FBC00BF00B583B046
:101EF00002AB012203F8011D1030194602F044FC28
:101F000003B05DF804FB00BF103002F05FBB00BF00
:101F100000B583B001220DF10701103002F08EFAF6
:101F200001280CBF9DF807004FF0FF3003B05DF8AB
:101F300004FB00BF014B1878704700BF5919FF1F01
:101F40002DE9F041614C624892B0FEF7BBFF04F509
:101F50008C655F48FFF732F8284603F0CDFC58B98E
:101F60005C48FEF7AFFF5C48FFF728F85B4B0122A7
:101F70001A7012B0BDE8F08104F23C40256002F016
:101F8000F3F80121204603F071F9002878D04F4F73
:101F900007F23C452846394602F04AFA0028DFD0CD
:101FA00097F83C3413F0700FDAD04D4E00243560B2
:101FB00005F0F6FE01AA09A8012329468DF8244060
:101FC0008DF8254002F080F990B94648FEF77AFF77
:101FD0004548FEF7F3FF01A8FEF7F0FF4FF4FA6063
:101FE00005F032FF3D4B01221A7012B0BDE8F081BE
:101FF0009DF804308DF824402F2B8DF8254003D117
:102000009DF80530002B51D0DFF8C08008F23C4726
:102010003946012301AA09A802F0B0F90028D4D05A
:102020009DF8243013F0700FCFD009AC0FCC3D4693
:102030000FC50FCC0FC598F83C3422682A6013F006
:10204000700F00D037602948254CFEF731FF01A8FA
:10205000FEF738FF2648FEF735FF3168254A264847
:10206000522302F08BF990B92448FEF72BFF244845
:10207000FEF7A4FF194B01221A7012B0BDE8F081DF
:102080000146204603F0F2F8002880D168E7216875
:102090001C4A1D48522302F071F90028E4D01B4865
:1020A000FEF710FF1A48FEF789FF62E7284602F0A4
:1020B0005BF83946284602F0BBF9002885D097F82E
:1020C0003C3413F0700F80D03560BCE7BC1BFF1FA1
:1020D000781F0100E01F0100F41F01005919FF1FC4
:1020E0007020FF1F881F0100A81F0100B41F0100FE
:1020F00070260100C81F0100A419FF1FFC1F01006A
:102100001C200100D01F01006C19FF1F941A010050
:10211000781B01002DE9F04F704BDFF8E4811A685D
:10212000DFF8E0B1ADF5357DDBF800303692369D55
:10213000A8FB0525AD099D4200F0C580FFF7BAFA5E
:102140000446FEF779FB824600F0D6FA8146FFF797
:10215000D5FD0646FFF7D6FD0023074619464FF486
:10216000F87238A8CBF8005037930AF09FFF206A26
:10217000299020682A9020792B9060792C90A07962
:102180002D90E0792E90207A2F90606C3090D6F8C8
:1021900028013190D6F82C01B1683290A06B94F8E8
:1021A0003CE04F4A4F4B3390206C3490A8FB011811
:1021B000D4E90A01BEF1000F14BF93469B460AF012
:1021C000EBFA3B68BA69D7F814C03592012B99ED48
:1021D000006B99ED025BA5EB981806F12409864681
:1021E0009AED007B94ED044B94ED062B06F1A806C6
:1021F00094ED0C1B6BD03C4C3C4A022B18BF144690
:102200003B6997F805A0269397ED023B2194359CF6
:102210002094349C1894339C1794329C1594319CD0
:102220001494309C13942F9C2E4912942C482E9C6D
:1022300011942D9C1094BAF1000F08BF08462C9CF5
:10224000CDF87CC08DED243BCDF878E08DED1C1BE6
:1022500022901A96CDF86480CDF858900F942B9C5C
:102260000E942A9C0D94299C214A0C942B468DEDAA
:102270000A2B8DED084B8DED045B8DED026B8DED22
:10228000007B4FF4FA7137A8CDF818B00BF062F963
:1022900037A80BF035FC37A90246164802F074FA4D
:1022A00037A80BF02DFC37A90246134802F06CFA50
:1022B000FEF7F0FD10F0060F0BD10F4802F05EFAAA
:1022C0000C4802F05BFA0DF5357DBDE8F08F0B4C44
:1022D00096E737A8FEF7F6FDEFE700BFC820FF1F1F
:1022E0002820010030200100482001003820010092
:1022F000502001006C19FF1FA419FF1F402001008E
:10230000D34D62109019FF1F0FB400B583B004AB1A
:102310004FF4FA7153F8042B0B4801930DF0FCF9BC
:1023200009480BF0EDFB08490246084802F02CFA78
:10233000FEF7B0FD430702D50348FEF7C3FD03B027
:102340005DF804EB04B07047C819FF1FA419FF1F04
:102350000FB400B583B004AB4FF4FA7153F8042BFB
:102360000B4801930DF0D8F909480BF0C9FB084957
:102370000246084802F008FAFEF78CFD430702D532
:102380000348FEF79FFD03B05DF804EB04B070470F
:10239000C819FF1FA419FF1F10B582B002A901229E
:1023A00001F8010D0446064802F0EEF9FEF772FD51
:1023B000430702D52046FEF779FD02B010BD00BFED
:1023C000A419FF1F10B582B002A9012201F8010D66
:1023D0000446064802F0D8F9FEF75CFDC30702D5B3
:1023E0002046FEF763FD02B010BD00BFA419FF1F19
:1023F00070B5294B294C2A492A4A09688EB002280F
:1024000018BF1C46002501924FF47A76224605A893
:1024100001238DF814508DF815508DF808508DF863
:102420001050039601F0AAFF50B31F48FEF740FD7D
:102430002046FEF747FD1D48FEF744FD1A48FEF70B
:1024400037FD9DF814301B074FF001020DF1030119
:1024500005A807D41448FEF72BFD05A801F084FE5B
:102460000EB070BD0C9C0A9B9C42F3D001F0E6FFBD
:1024700001280CBF9DF80300FF20FEF717FDE0E7E1
:102480000B48FEF715FD2046FEF71CFD0748FEF73A
:102490000FFD0EB070BD00BFC81F0100D01F0100AE
:1024A0007020FF1F5C1F0100841B010070260100CB
:1024B000B821010030B40E480E490F4A0F4BC0F846
:1024C000603400230E4CC3714FF47A7580F83C34AD
:1024D00080F83D340B744B740B710B73137453748D
:1024E000137113738D600C609560146030BC70477D
:1024F000BC1BFF1F9419FF1F5C19FF1F542701000D
:102500005C1F01002DE9F84F3348DFF8F490334E9B
:10251000DFF8F0B0FFF71CFF3148FEF739FD00246B
:102520004D46A04601222946304603F063FDC8B956
:10253000304603F051FD21462A48FFF7E5FE4FF0F3
:1025400001080134022C06F1140605F10805E9D151
:10255000254B2648B8F1000F08BF1846BDE8F84FD4
:10256000FEF72CBD0721284603F0C8FDEB79834216
:1025700006D021461E48FFF7C7FE4FF00108E0E7EE
:1025800019F83430102B4FEAC407214607D0282B06
:1025900005D01848FFF7B8FE4FF00108D1E71648FC
:1025A000FFF7B2FE05F1070A19F807102F463A2285
:1025B0001248FFF7A9FE17F8011F5745F7D120224F
:1025C0000E48FFF7A1FE0848B8F1000F18BF5846A3
:1025D000FFF79AFEB5E700BFE82101003420FF1F96
:1025E0000822010014220100D8210100E02101008D
:1025F000442201006822010090220100A82201006B
:102600002020FF1FD02101002DE9F04F344B354928
:102610001A6887B032B1086801900198821AB2F541
:102620007A7F1BD30A6802920FF2AC0BDBE900AB96
:10263000029A2D4F2D4DDFF8BC901A60002619F834
:102640000630102B0DD0282B0BD0C7E900AB083675
:10265000102E07F1080705F11405F0D107B0BDE809
:10266000F08F09EB0604284603F002FC21462846B9
:1026700003F0A0FC01224421284603F06BFC28460D
:1026800003F0F6FB2146284603F094FC0022BE210D
:10269000284603F05FFC0DF10B040DF114082846E9
:1026A00003F078FC04F8010FA045F8D1284603F0A8
:1026B00093FC9DF80C309DF80D0043EA002000B219
:1026C00009F054FD00220A4B09F0B6FDC7E90001EC
:1026D000BDE700BFAFF300800000000000408FC0E6
:1026E0003020FF1FC820FF1F6020FF1F3420FF1F66
:1026F0000000B03F2020FF1F004870476020FF1FF0
:1027000010B5064C1C21204603F094FB04F1140084
:102710001E21BDE8104003F08DBB00BF3420FF1F19
:1027200070B5184E04460FCE8CB06D460FC50FCE57
:102730000FC596E80F0085E80F00002213465DF8EC
:102740000210A14202F10C0211D00133042BF6D188
:102750000D4D0E48FFF7D8FD2846FEF72FFC20460A
:10276000FFF762FB4FF47A7005F06EFBF7E703EBBF
:1027700043030CAA02EB830353F82C0C53F8285C98
:10278000E8E700BFB0220100E0220100F0220100D2
:1027900005F0FCB9007D70470069704729B1012937
:1027A00002D11E234360704770470A23436070477D
:1027B0008160704710B50446C069431C03D0C0B2A5
:1027C00005F00CFB38B1074858B1FDF7D7FF80F092
:1027D0000100C0B210BD0348012384F82230002854
:1027E000F3D110BD7D070000F0B50D4D83B02B680F
:1027F00000934FF47A74009F064604FB01F402E054
:10280000FFF7D8FF48B92B680193019BDB1BA3425C
:102810003046F5D3012003B0F0BD002003B0F0BD79
:10282000C820FF1F836981F0010202755A1C33D052
:1028300030B50D4683B004460121D8B205F0DCFA6C
:10284000B5B9184B606A1B680193019B181AB0F563
:10285000FA6F22D3144D50212046FFF75BFA15F88A
:10286000011F0029F8D1207E05F0B2FA03B030BD77
:102870000E4D50212046FFF74DFA15F8011F002993
:10288000F8D10121207E05F0A3FA064B1B680093C6
:10289000009B636203B030BD7047C0F5FA6005F07D
:1028A000D3FAD7E7C820FF1FFC230100E42301006F
:1028B000427D0AB1092070478169013107D010B506
:1028C000047D0121417524B142750A2010BD0B2001
:1028D000704744752146FFF7A5FF204610BD00BF95
:1028E0002DE9F04104460E461F4642B1144D3E21EB
:1028F0002046FFF70BFA15F8011F0029F8D13178AF
:10290000751C31B12046FFF701FA15F8011B0029AB
:10291000F8D147B10B4D0D212046FFF7F7F915F817
:10292000011F0029F8D1246830460BF0E9F823682C
:102930000246314620465B68BDE8F041184700BFBB
:10294000142401007026010070B5154D0E46044692
:102950003E212046FFF7DAF915F8011F0029F8D1CA
:10296000317839B135462046FFF7D0F915F8011F07
:102970000029F8D10B4D0D212046FFF7C7F915F8B6
:10298000011F0029F8D1246830460BF0B9F82368FC
:102990000246314620465B68BDE87040184700BFDC
:1029A000142401007026010030B585B00A460546A2
:1029B000084901A80AF01CFE9DF8041039B101ACC9
:1029C0002846FFF7A7F914F8011F0029F8D105B030
:1029D00030BD00BF1824010030B585B00A46054659
:1029E000084901A80AF004FE9DF8041039B101ACB1
:1029F0002846FFF78BF914F8011F0029F8D105B01C
:102A000030BD00BF182401002DE9F043274E284FA8
:102A100083B004464FF00108206803681B6998479B
:102A2000002802DD236B013302D003B0BDE8F08340
:102A3000206803685B699847C5B229462046FFF7BE
:102A400065F9A26A13780BB19D4201D02563E3E7D3
:102A5000531CA36253786BB9164D84F8228053211E
:102A60002046FFF757F915F8011F0029F8D1E76252
:102A7000A762D1E733680093DDF80090206803680F
:102A80001B69984730B933680193019BC9EB030375
:102A9000092BF3D9206803681B6998470028BBD12C
:102AA000A36A2563013BA362B6E700BFC820FF1FEE
:102AB000E02601001C24010090F8212052B1437D42
:102AC00010B5044643B194F82220002384F8223044
:102AD000104610BD10467047FFF796FFF3E700BFA2
:102AE00010B50446FFF790FFA26AE36A9A4205D93F
:102AF000591CE1628A42187808D010BD206B431C33
:102B0000FBD04FF0FF33C0B2236310BD014BE36233
:102B1000A36210BDE02601002DE9F04F85B0514DB4
:102B20000E9E8A4604469346984657212046FFF754
:102B3000F1F815F8011F0029F8D1317839B135467F
:102B40002046FFF7E7F815F8011F0029F8D1464D98
:102B50000D212046FFF7DEF815F8011F0029F8D1F6
:102B6000BAF1000F03D05A4650460AF09FFAB8F166
:102B7000000F3E4D14BF002702273C212046FFF7DF
:102B8000C5F815F8011F0029F8D1394B1B680293CD
:102B9000029B01930D468946354B01991B680393AF
:102BA000039AA368521A4FF47A7101FB03F39A4215
:102BB00053D22046FFF7FEFD00284ED12046FFF7F6
:102BC00023FFA36AE16A226B5B1AB2F1FF3F18BFD1
:102BD0000133002BE0DD2046FFF782FFC0B2B8F1E1
:102BE000000F10D0C7B1012F0DD1BAF1000F0AD0DC
:102BF0000D2828D0BBF1010F25DD8AF800000BF16C
:102C0000FF3B0AF1010A735D834214D035782D1A17
:102C1000B5FA85F56D09D1E718F80930834214D06B
:102C200098F80090735DC0EB0909B9FA89F98342FD
:102C30004FEA5919EAD10135735D002BBED101204D
:102C400005B0BDE8F08F0227DDE709F1010918F8AA
:102C50000970B7FA87F77F09D5E7002005B0BDE80E
:102C6000F08F00BF34240100702601004C240100C5
:102C7000C820FF1F072A01D80820704770B501231C
:102C800082B00E4614460C491A460546FFF728FE48
:102C90000A4B009322463146094B2846FFF73CFF7A
:102CA00010B1002002B070BD2846FFF783FD002858
:102CB00014BF04200320F5E768240100D821010097
:102CC000742401002DE9F047944D8CB00446432153
:102CD0002046FFF71FF815F8011F0029F8D1237DC2
:102CE0001BB901200CB0BDE8F0878D4D01212046B5
:102CF000FFF798FD2B680393039E02E0FFF75AFD50
:102D000038BB2B680493049B854A9B1BB3F5FA7F61
:102D10002046F3D313680693DDF81890DFF8448259
:102D2000804F28680590059E7F49DFF8F8A1C9EB20
:102D30000606012346451A4620460ED97B4D4E21F4
:102D40002046FEF7E7FF15F8011F0029F8D10520FE
:102D5000C8E704200CB0BDE8F087FFF7C1FD0023F1
:102D600000971A4619462046FFF7D6FE064620462B
:102D7000FFF720FD0028ECD1002ED2D06C4B93E859
:102D8000070009AD85E807000CAE01231A4655F887
:102D9000041B2046FFF7A4FD0023CDF800A01A462F
:102DA00019462046FFF7B8FE00287CD0B542ECD18A
:102DB000604D52212046FEF7ADFF15F8011F002996
:102DC000F8D194F821105C4A5C4B002918BF1346D7
:102DD0005D1C197831B12046FEF79CFF15F8011BE8
:102DE0000029F8D1564E202529462046FEF792FFAD
:102DF00016F8015F002DF7D194F82100514A52498D
:102E00000123002808BF11461A462046FFF768FD37
:102E1000CDF800A02B462A4629462046FFF77CFE27
:102E2000002840D007A908222046FFF723FF0028EA
:102E300041D0464D55212046FEF76CFF15F8011F85
:102E40000029F8D1012384F82030414D4D2120463E
:102E5000FEF760FF15F8011F0029F8D194F8201043
:102E6000354A364B002918BF13465D1C197831B11D
:102E70002046FEF74FFF15F8011B0029F8D1354D0C
:102E800020212046FEF746FF15F8011F0029F8D142
:102E9000314D49212046FEF73DFF15F8011F00295D
:102EA000F8D108461EE72046FFF784FC00287FF48F
:102EB00050AF032016E7294D46212046FEF72AFF92
:102EC00015F8011F0029F8D19DF81C1039B107AD84
:102ED0002046FEF71FFF15F8011F0029F8D1204DED
:102EE0000D212046FEF716FF15F8011F0029F8D125
:102EF0009DF81C30542BA8D19DF81D30412BA4D136
:102F00000A220DF11E000BF043F843F2C823984249
:102F10008CBF0020012084F8200096E7B82401002F
:102F2000C820FF1FD821010044250100D024010042
:102F3000D8230100E82401004C2601009024010060
:102F400048250100A824010098240100F82401006C
:102F500054250100682501002825010010250100E5
:102F6000702601007FA9030070B5467D0EB10920CF
:102F700070BD012343750446FFF7A4FE6675054640
:102F800000B970BD20463146FFF74CFC284670BDA5
:102F900030B5012389B01A460D4610490446FFF7A3
:102FA0009FFC0F4B009320460E4B182202A9FFF7FF
:102FB000B3FD50B19DF8080009F098FC003018BF2F
:102FC00001202870002009B030BD2046FFF7F2FB39
:102FD000002814BF0420032009B030BD5024010094
:102FE000D82101005C240100F0B51D46012391B0F9
:102FF0000F46164623491A460446FFF771FC224B3A
:103000000093204608A9214B2022FFF785FD0028C8
:103010002DD0169B05930124179B0693012C189B1A
:10302000049502970396079302AD19494FF00000EB
:1030300010D00AF00DFEF0B12E6809F0F5FB062C59
:10304000308011D00134012C05F1040510494FF0F6
:103050000000EED10E4908A80AF0FAFD58B12E681A
:1030600009F0E2FB3080EDE7002011B0F0BD204612
:10307000FFF7A0FB10B9032011B0F0BD042011B080
:10308000F0BD00BF88250100D82101009425010072
:10309000A02501002DE9F04F774D012389B08A4624
:1030A000914629461A460446FFF71AFC002300956C
:1030B00020461A461946FFF72FFD18B36F4D2B68AF
:1030C0000493049E4FF47A7708E0FFF773FBE8B9A6
:1030D000206803681B699847012809DC2B68059361
:1030E000059AA368921B07FB03F39A422046ECD390
:1030F000206803681B69984701280FDC072009B086
:10310000BDE8F08F2046FFF755FB18B1042009B049
:10311000BDE8F08F032009B0BDE8F08F2068DFF82C
:1031200068B103685B6998478046206803685B69FB
:10313000984700EB08201FFA80F85B2739462046A5
:10314000FEF7E4FD1BF8017F002FF7D14146204632
:10315000FFF742FC5D212046FEF7D8FDB8F1000FD5
:1031600035D003974FF47A7B0AE02B680693069BD1
:10317000A2689B1B0BFB02F18B42BFD2474529D2B1
:103180002046FFF717FB0028C0D1206803681B69A1
:1031900098470028E9D02068036801375B699847A1
:1031A000BFB2BAF1000FE0D0B9F1000FDDD0D9F80D
:1031B00000304BB18AF80000D9F80030013B0AF129
:1031C000010AC9F80030D0E701230393CDE7A268D4
:1031D000CDF80C804FF47A770AE0FFF7EBFA00287D
:1031E00094D1206803681B699847012809DCA2680C
:1031F0002B680793079B07FB02F29B1B9342204619
:10320000EBD3206803681B69984701287FF776AFE6
:1032100020681B4D03685B69984706462068036871
:103220005B69984700EB062086B25B212046FEF7DB
:103230006DFD15F8011F0029F8D131462046FFF732
:10324000CBFB5D212046FEF761FDB9F1000F01D0F7
:10325000C9F800800B4B009300231A4619462046FC
:10326000FFF75AFC00283FF44DAF039B002B0CBF27
:103270000020082043E700BFA4250100C820FF1F4D
:10328000C0250100D8210100B02501002DE9F0473B
:10329000B74E8AB005460F469046994669242146A6
:1032A0002846FEF737FD16F8014F002CF7D12B7D8D
:1032B0001BB10A200AB0BDE8F087B8F1000F02D0B8
:1032C000B9F1000F14D1002F00F03C810D213846D8
:1032D0000AF0D8F908B10023037038460AF010FC50
:1032E000B0F5AA7F40F212810D200AB0BDE8F08748
:1032F000B9F5AA7FF8D8234601229E4928461FFA2D
:1033000089F6FFF7EDFA31462846FFF765FB494697
:10331000286806F0F1FB0123224697492846FFF76B
:10332000DFFA964B00932246234621462846FFF7B4
:10333000F3FB002800F0E380C14428680368474697
:103340001B6818F8011B98473B78C8451C44A4B279
:10335000F3D15B212846FEF7D9FC31462846884E3A
:10336000FFF73AFB20212846FEF7D0FC16F8011F94
:103370000029F8D1834E43212846FEF7CBFC16F8EE
:10338000011F0029F8D121462846FFF70DFB7E4F8B
:103390000D2631462846FEF7BDFC17F8016F002EBA
:1033A000F7D128680368C4F307211B689847286889
:1033B0000368E1B21B689847744B009333461A4682
:1033C00019462846FFF7A8FB002800F09880DFF890
:1033D000E4816F4FD8F800300993DDF824A0D8F8C5
:1033E00000300893089BCAEB0303BB425ED84FF042
:1033F0000109002695F820308DF81390002B60D13C
:103400000DF11E0107AA0DF11A030291019200931A
:103410000DF1160206AB05A92846ADF81460ADF80B
:103420001660ADF81860ADF81A60ADF81C60ADF824
:103430001E60FFF7D9FD00287FF43CAF554C5321A7
:103440002846FEF767FC14F8011F0029F8D1BDF8E3
:1034500014104D4C2846FFF7A7FA0D212846FEF719
:1034600059FC14F8011F0029F8D1BDF81430042BC1
:1034700040F2A28023F002020C2A6DD0102B6BD0F8
:10348000454C57212846FEF745FC14F8011F00293A
:10349000F8D169682846FFF7A7F970B3D8F800306B
:1034A0000893089BCAEB0303BB42A3D93B4C5321AF
:1034B0002846FEF72FFC14F8011F0029F8D1072039
:1034C000F8E60AA9284601F8156DFFF761FD002806
:1034D0007FF4F0AE9DF81330002B91D1304C572182
:1034E0002846FEF717FC14F8011F0029F8D10A211D
:1034F0002846FFF779F90028D0D10420DAE62846DB
:10350000FFF758F90028F8D10320D3E601231A4623
:1035100024492846FFF7E4F9184B009300231A4684
:1035200019462846FFF7F8FA0028E8D03946284619
:10353000FFF70AFA10492846FFF706FA134B0093E3
:1035400000233CE701231A4617492846FFF7C8F92C
:10355000164B00933B4632E7154C53212846FEF7A5
:10356000D9FB14F8011F0029F8D10620A2E600BFFC
:10357000C8250100E0250100CC260100EC25010052
:10358000F4250100FC250100702601000826010039
:10359000DF9304002C26010074260100B4260100EC
:1035A000942601002026010014260100D8210100E4
:1035B00064260100C820FF1F144C53212846FEF743
:1035C000A9FB14F8011F0029F8D1BDF81830BDF887
:1035D0001E202A61012B04D0139BA3B10020186088
:1035E00068E6129B002BF7D0094C49212846FEF7CC
:1035F00091FB14F8011F0029F8D12846139A12995B
:10360000FFF748FD56E6139854E600BF3C2601003C
:103610005026010070B5457D82B015B1092002B079
:1036200070BD01268DE80C0046752B462A460446DF
:10363000FFF72CFE657502B070BD00BF00220221AD
:10364000027042708280826002730282426102765E
:103650008283026280F824200285C26280F83020D2
:1036600080F8382080F83920C26380F8482080F83C
:103670004920C26480F8582080F85920026680F8FA
:10368000682080F86920026780F8782080F8792027
:10369000C0F8802080F8882080F88920C0F8902029
:1036A00080F8982080F89920C0F8A02080F8A82001
:1036B00080F8A92080F8BA2080F8BB2080F8BC20D0
:1036C000C0F8C020C0F8C420C0F8C820C0F8CC2082
:1036D000C0F8D020C0F8D42080F8AA2080F8B91013
:1036E000704700BF38B5057804462D2D08BF01345A
:1036F000204609F099F82378A3F1300164220929C2
:1037000002FB00F005D814F8013FA3F13002092AAA
:10371000F9D92E2B03D02D2D08BF404238BD637838
:10372000303B092BF7D8A27803EB8303303A00EB48
:103730004300092A98BF80182D2D08BF404238BD8C
:1037400070B50D46044609F06FF81C4B1C4AA3FBEC
:103750000013590929802378642606FB1100A3F180
:103760003001092902FB00F005D814F8013FA3F14C
:103770003002092AF9D92E2B0AD000EB8000114B18
:103780000130A3FB00235B0800226B602A7270BD2E
:103790006178A1F13002092A04F10104EDD8084B47
:1037A000094E14F8011FA6FB03E3DB0803FB02002C
:1037B000A1F13002092AF4D9DFE700BF1F85EB51E0
:1037C00080969800ABAAAAAACDCCCCCC2DE9F0412A
:1037D00090F8A9608CB004464EB390F8AA30A3F1DB
:1037E0004102052A40F28280A3F16102052A94BFBA
:1037F000A3F15702A3F1300294F8AB30A3F14101D9
:1038000012010529D2B200F29980373B134494F893
:10381000A820DBB29A4200F09E80D4F8D030013369
:10382000C4F8D030002630460CB0BDE8F08190F8E6
:10383000BA3023BB00F1AA073846AC4909F094FF1F
:10384000002840F0C280012384F8B930D4F8C05079
:10385000C4F8C4502DB9E6E72D6BC4F8C450002D50
:10386000E1D03946A86A09F07FFF0028F4DBDAD0FE
:1038700000233046C4F8C4300CB0BDE8F08190F8A5
:10388000B920022A3AD090F8AA10B9B343EA4213F9
:10389000013B282B32D8DFE813F04F0149014101E9
:1038A0003B01330122012C001C01160131003100C3
:1038B0003100310031003100310031003100310080
:1038C0003100310031003100310031003100310070
:1038D000310031003100310031004F010E0149014A
:1038E00041013B01330109010401FF00A3F137024B
:1038F00082E7AA3008F098FFC4F89400D4F8C450C6
:10390000002D90D02B4604F1AA0704E02D6B002D6A
:1039100089D0D4F8C430996AA86A09F025FF002834
:1039200081D1EA6A94F8BA309A423FF77CAFEDD180
:103930001022394628460AF051F9E7E7A3F1610160
:10394000052994BF573B303B134494F8A820DBB2C1
:103950009A427FF462AFD4F8D43094F8BC2001339B
:10396000C4F8D430002A47D0D4F8CC3094F8B91039
:103970000133C4F8CC30002900F0E380012942D0A3
:10398000D4F8C450002D3FF44EAFDFF870812B46C1
:10399000012712E005F110000AF050F8D8F80030C5
:1039A0000B930B9B85F8257085F824702B622D6B8B
:1039B000002D3FF438AFD4F8C430996AA86A09F0F2
:1039C000D3FE29460028E5D02DE74949384609F0BD
:1039D000CBFE00283FF437AF4649384609F0C4FE15
:1039E000002855D04449384609F0BEFE00284FD083
:1039F000022384F8B93029E794F8B930002B00F09D
:103A0000EA80012BBCD13D49256C0B680293029BD7
:103A100008680190019F206D636401236765E56379
:103A200084F8393084F8383084F8493084F84830E4
:103A3000E064002AA4D0204650F81C7F4568A560A9
:103A40006760007A207320460D6850F8282F05958E
:103A5000059F0D68D0F804E00495049D2261096873
:103A6000C4F814E00391017A21760398616E626FC5
:103A700084F8593084F85830637023706763E565C3
:103A8000E0662166226784F8693084F8683077E759
:103A9000002384F8B930D9E6AA3008F0C5FE2064C6
:103AA0002CE7AA30FFF71EFE606727E7AA30FFF772
:103AB00019FE606622E7A1F14101B1FA81F14909DD
:103AC00080F8BC101AE7AA30FFF70CFEC4F8840097
:103AD00014E7AA30FFF706FEC4F8A4000EE7302969
:103AE00094BF0021012180F8BC1007E7EC260100FB
:103AF000F4260100FC26010004270100C820FF1F56
:103B0000A1F15701B1FA81F1490980F83010F5E6C9
:103B100000F12801AA30FFF713FEEFE6A1F15301EF
:103B2000B1FA81F1490980F82410E7E600F11C019F
:103B3000AA30FFF705FEE1E6AA30FFF7D3FD2065C6
:103B4000DCE620462A4B50F81C7F19684568A560C2
:103B50006760007A20732046069150F8285F069926
:103B6000616519684768089125616761089D1F684C
:103B7000226D0797E264077AD4F8841007982776B5
:103B8000012284F8492084F848206270227065631D
:103B9000E067C4F8801084F8792084F878201A68E7
:103BA0000A920A9D1B6809930998D4F89410D4F8D6
:103BB000A420C4F88C500123C4F89C00C4F89010D1
:103BC00084F8893084F8883084F8993084F8983003
:103BD000C4F8A020D4E6064B216D1A680692069A16
:103BE00062650122E16484F8492084F84820D6E720
:103BF000C820FF1FD0F8C82038B503460132A1F114
:103C00000A00C3F8C82022283FD8DFE800F0183E99
:103C10003E183E3E3E3E3E3E3E3E3E3E3E3E3E3EEA
:103C20003E3E3E3E3E3E3E3E2F3E3E3E3E3E183EE9
:103C3000120093F8A82082F02C0283F8A8201D46D9
:103C400093F8BB300E2B0C4632D9002095F8BA30D1
:103C5000A4F12A0101330022B1FA81F1490985F862
:103C6000BA3085F8BB2085F8A91038BD00200222A3
:103C700083F8BB0083F8BA0083F8A80083F8B92062
:103C800083F8A90083F8BC0038BD93F8BB200D2A47
:103C900005D89818013283F8BB2080F8AA1093F851
:103CA000A90068B993F8A820514083F8A81038BD3E
:103CB0002B44002283F8AA202846FFF787FDC5E79A
:103CC000002038BDFFFFFFFF2DE9F04F2DED048BE5
:103CD00053EC132B87B051EC110B8DED022B55ECEF
:103CE000104B08F0F5F85CA3D3E9002308F0A4FA20
:103CF00041EC100B41EC180B06F026FB59EC108B35
:103D0000B0EE480AF0EE680A06F0BEFA20462946F0
:103D100051A3D3E900238DED000B08F08DFA9DED42
:103D2000022B4DA3D3E9002341EC190B51EC120BEC
:103D300008F082FAB0EE490AF0EE690A41EC180B7D
:103D400006F002FB8DED020BB0EE490AF0EE690AB7
:103D500006F09AFA5BEC10ABB0EE480AF0EE680A97
:103D600006F0F2FA57EC106BB0EE480AF0EE680A73
:103D700006F08AFA32463B465046594655EC104BFF
:103D8000CDE9046708F058FA224606460F462B464E
:103D9000DDE9020108F050FADDE9002308F04CFAF1
:103DA00002460B463046394608F092F8224606464F
:103DB0000F462B464046494608F03EFA32468046BA
:103DC00089463B463046394608F036FA42460646B2
:103DD0000F464B464046494608F02EFA02460B462F
:103DE0003046394608F076F841EC100B06F00EFB31
:103DF00022462B4650465946B0EE408AF0EE608A85
:103E000008F01AFADDE9002308F016FADDE90423C8
:103E100004460D46DDE9020108F00EFA02460B46A3
:103E20002046294608F056F8B0EE480AF0EE680A37
:103E300041EC110B06F0E8FA09A3D3E9002351EC99
:103E4000100B08F0F9F941EC100B07B0BDEC048B36
:103E5000BDE8F08FAFF30080000000A046DF913F87
:103E6000000000C06E4F584190ED027A9FED106A3D
:103E70008388B8EE477A07EE903AC7EE066A10B527
:103E8000002304464370F8EEE77A76EEA77A17EE41
:103E9000900A08F07DF9237B2BB1024601F1004323
:103EA00043EC102B10BD02460B4643EC102B10BD0B
:103EB000286B6E4E90ED057A9FED106A038AB8EE7E
:103EC000477A07EE903AC7EE066A10B5002304461B
:103ED0004370F8EEE77A76EEA77A17EE900A08F0CC
:103EE00057F9237E2BB1024601F1004343EC102B1E
:103EF00010BD02460B4643EC102B10BD286B6E4ED6
:103F00004368064AA2FB03125209642101FB1233E3
:103F100003F5FA630022427098B270471F85EB5197
:103F2000084B4168A3FB01214909A3FB01235A095E
:103F3000642310B403FB121300244470D8B25DF85C
:103F4000044B70471F85EB51436804490022A1FBD5
:103F500003134270C3F34730704700BF5917B7D1FE
:103F6000436804490022A1FB03134270C3F3874056
:103F7000704700BF83DE1B4309494368094AA1FB20
:103F800003135B0BA2FB031210B45209642404FB5D
:103F90001233002141705DF8044BD8B2704700BF66
:103FA0005917B7D11F85EB51084B4168A3FB01217D
:103FB0004909A3FB01235A09642310B403FB12131C
:103FC00000244470D8B25DF8044B70471F85EB5154
:103FD0004368074AA2FB031210B45209642404FB8D
:103FE0001233002141705DF8044BD8B2704700BF16
:103FF0001F85EB5138B504460D462422002109F0F7
:1040000055F8A560EB79102B08D0202B04D1402364
:1040100001202370A07038BD002038BD202301206E
:104020002370A07038BD00BF2DE9F041037803F084
:1040300020032BB903F0FF044269214B9A4204D9B3
:104040004FF000084046BDE8F081837801690546DD
:1040500063F07F038068AB7005F1100201F0AEF8E9
:1040600080460028ECD02969A86801F043F806468C
:10407000A86831462430052201F004F807460028DC
:10408000DED04FF40072214609F010F8AB681A79BF
:10409000012A10D9012403E0AB681A79A2420AD997
:1040A00018680368A1199B683A4698470134E4B23E
:1040B0000028F1D1C4E76B6903EB42226A61C1E7D2
:1040C000FFFD1F0010B5044680680A462430A16930
:1040D00000F0D8FF20B1A38803F00F0300EB4310DA
:1040E00010BD00BF38B590F90230002B044618DB34
:1040F000A56805F1240000F0F5FF28B9637843F0C6
:1041000001036370002038BD05F50C7000F0EAFF74
:104110000028F3D0286803685B6898470028EDD032
:10412000F1E70121FFF7CEFF05460028E6D003782E
:10413000E52BE3D023780B4A1B0744BFE369C36137
:10414000236A126843831B0C83822AB100F1160193
:10415000183090472B8B6B82A37803F07F03A370FA
:10416000C6E700BF7420FF1F10B5037804461BB9D3
:1041700000232370012010BDFFF7B4FF002323703C
:1041800010BD00BF2DE9F0430D7815F0700F89B018
:1041900003D1002009B0BDE8F083C32304460D46D7
:1041A00000F068FD0028F4D001221023A2702370D3
:1041B0002046FFF739FF0028EBD0237822692262DE
:1041C000002B75D101212046FFF77CFF0646002811
:1041D000DFD01023C37282687168F3680068B6F894
:1041E0001480B6F81A906F460FC77169B269F36907
:1041F000306908AE0FC72E2306F8203D0DF10A01E5
:104200003346202203F8012F9942FBD1216AA0688E
:1042100000F070FFA3680146012203F1240000F0C2
:1042200031FF86460028B4D03746ADF81480ADF88B
:104230001A900FCFCEF80000CEF80410CEF8082068
:10424000CEF80C300FCFCEF81000CEF81410CEF808
:104250001820CEF81C302B6AADF81A302E221B0C19
:104260003546ADF814308DF801200FCD0EF1200643
:10427000CEF820007160B260F3600FCD30617161E3
:10428000B261F361A46804F1240000F02BFF002860
:104290003FF47FAF04F50C7000F024FF00283FF4DA
:1042A00078AF206803685B6809B0BDE8F043184741
:1042B000636913B10023236163612046FFF712FF96
:1042C00000283FF466AF7DE7F0B5064693B0357839
:1042D000019200208DF824008DF825002DB91F468D
:1042E0000B7813F0700F0C4602D1002013B0F0BD14
:1042F00013782F2B104628D001AA03A900F038FB11
:1043000003AA214601230028EFD0019D2D783046D5
:10431000002D2CD000F0AEFC40B9002FE5D0214696
:1043200003AA3046FFF72EFF0028DED035460FCD1A
:1043300009AC0FC40FCD0FC433782A68226093B93B
:1043400000233370019809ACD6E70130019003785F
:104350002F2BFAD0A16809A8FFF74CFE0028C4D083
:10436000019809ACC8E73046FFF7BCFEE8E703AAAE
:1043700021463046FFF706FF13B0F0BDF0B5064604
:1043800093B03578019200208DF824008DF8250037
:104390002DB91F460B7813F0700F0C4602D1002088
:1043A00013B0F0BD13782F2B104616D101300190B9
:1043B00003782F2BFAD0002B34D0A16809A8FFF77F
:1043C00019FE0028EBD0019809AC06E03046FFF753
:1043D00089FE00230198337009AC01AA03A900F0FB
:1043E000C7FA03AA214601230028D8D0019D2D78C1
:1043F00030467DB100F03EFC354609AC0028CED0F9
:104400000FCD0FC40FCD0FC433782A682260002B64
:10441000DFD0DBE73B4603AA2146304600F02AFC0A
:1044200013B0F0BDA1683046FFF7E4FDB8E700BF68
:1044300003780BB100207047FFF7DCBD2DE9F04F8A
:104440000F46017883B0054611B18378DC0708D4A4
:104450006B784FF0FF3043F002036B7003B0BDE8A0
:10446000F08F0B07914600F18780880608D5AA686F
:104470006B691289C3EB42139BB2994528BF9946D9
:10448000B9F1000F00F097806B698A064E464FF035
:10449000000805F1100AC3F3080B3FD5AA68116A9A
:1044A00001EB5321BBF1000F52D1B6F5007F4FD382
:1044B000D36A99424CD0B6F5806F66D328788006CF
:1044C0004FEA562B06D41079C8EB0000C0B28345E2
:1044D00028BF834699424FEA4B240BD85B4499424C
:1044E00008D202F12400019100F0FCFD0028AFD0B9
:1044F000AA680199106802685B46D2F80CB03A4687
:10450000D8470028A4D06B69361B234427446B612D
:1045100051D029788A06C3F3080BBFD4A86890F855
:10452000058008EA5328BBF1000F2CD1B8F1000F29
:1045300029D1002B34D14C064CBF016A296A29616C
:1045400000F0D8FDAA6808EB0001BBF1000FACD069
:1045500002F12400002200F095FD00283FF478AF1E
:10456000CBF50074B44228BF344600EB0B01224661
:10457000384603F0E1F8C6E7EB696A699B1A99458A
:1045800028BF99467CE72969DAE7106803683A464C
:104590001B68984700283FF45BAF4FF40074B2E704
:1045A0005246296900F0ACFD0028FFF651AF08D053
:1045B000A8682969C4E70026C6EB090003B0BDE876
:1045C000F08F2B7813F0700FF6D141E770B582B001
:1045D00001220DF10701044646690569FFF72EFF28
:1045E000012805BF9DF8070066614FF0FF30256187
:1045F00002B070BD30B54369C3F3431583B00446C0
:1046000005B189B901220DF107012046FFF716FF18
:1046100040B201280BD163691F336361A068303059
:1046200000EB451003B030BD20334361F6E70020B6
:1046300003B030BD2DE9F04103780769044693B11A
:1046400042698A420E4636D021B921616661012055
:10465000BDE8F08118070AD499060BD5A3681B8919
:10466000B6EB431FF2D927610020BDE8F081E16974
:104670008E42F8D8D4F808E09EF80650511E05F195
:104680000900751EC140C540A94200D8B2B95B06F9
:104690004CBFDEF82030236A236104F11008424643
:1046A000002DD3D02169A06800F02AFD002805F173
:1046B000FF35F4DCD7E70120BDE8F0816D1AECE7A7
:1046C0002DE9F041884615460021242204461E4665
:1046D0009DF8187008F0EAFCD8F80800D8F82030E7
:1046E000E36005F00F02520100F130011144A060B7
:1046F000A580CB7A1B0714D4831893F83B3003F0C2
:1047000017032370C97AE77011F0180F04BF43F044
:104710000803237016F0320F07D0237813F0110F1F
:1047200003D000202070BDE8F08106F00F05A570D1
:104730000244C36AA361B2F84410B2F84A30F706E3
:1047400043EA014107D42162D36CE361B30607D485
:104750000120BDE8F08151B965F07F05A570F5E74E
:10476000E1692046FFF766FF0028F1D1D9E700F0A4
:1047700061FD0028D5D0A578EEE700BF03780BB126
:10478000FFF7B0BC012070472DE9F84F03781E07F2
:1047900004466FD583789D076CD55B070F4690461E
:1047A00000F1CD806369DA43904563D8B8F1000F1A
:1047B00000F0B68046464FF0000933E0002940F093
:1047C0008380216A002900F08A80216100F092FC38
:1047D0000146B6F5007F55D3B6F5806F66D3A26863
:1047E0001379D06A5B1BDBB2750AAB4228BF2B463C
:1047F00081424FEA432508D81844814205D282F805
:1048000024904FF0FF30D062A26810680268D2F89E
:1048100010A03A46D04768B36369761B2B442F44F7
:1048200063617DD0A0682169457915EA5325C3F3FA
:10483000080A34D1BAF1000FC0D000F05BFC014689
:10484000CAF50075B54228BF35460122A06824305C
:1048500000F018FC70B150442A463946AA4402F0D0
:104860006BFFBAF5007FD7D1A068243000F03AFC86
:104870000028D1D1637843F0010363704FF0FF301B
:10488000BDE8F88F6369E269B6F5007F354628BF59
:104890004FF40075934234BF01220522D6E700F0A1
:1048A00029FC2918BAF1000F93D0C9E7A368DA6A86
:1048B000914222D0186803683A469B6898470028BE
:1048C000D8D04FF40075A7E704F1100B5A4600F05A
:1048D00017FC0028CEDB17D02169A06876E7A37803
:1048E00063F07F03A37004F1100200F067FC00285E
:1048F000C0D021692162A06868E783F824904FF056
:10490000FF32DA62A368D5E7A3782169A06863F073
:104910007F035A46A37000F051FC0028DCD1A9E7C0
:10492000E2699A4212D2A278E36142F08003A37056
:104930001A0701D523788BB94046BDE8F88FE169A5
:10494000FFF778FE00287FF42DAF93E7074B1B6835
:1049500053B1A37843F08003A370E9E72046FFF743
:10496000C1FB0028E8D185E7A378E1E77420FF1FA9
:104970002DE9F04F0378202B03D110F8013F202BB5
:10498000FBD088600378002B00F007812F2B2FD0FD
:104990005C2B22D0A3F12204E4B21D2C20D9DFF835
:1049A00018E2461C00247C2BA3F12005374614D0C6
:1049B0005E2D12D816F8013BA3F12205EDB20134A9
:1049C000002B00F0D3802F2B13D05C2B2EFA05F791
:1049D00003D01D2DE7D8FF07E5D50020BDE8F08FF7
:1049E000754D25FA04F4E407D9D50020BDE8F08F11
:1049F000002407193E4625462F2302E016F8013F02
:104A00000135202BFAD02F2BF8D0054415604CB17E
:104A10003A4612F8013D2E2B02D0202B40F0A980FF
:104A2000013CF6D14FF0FF3523464B6001F11706EC
:104A300001F10C03202203F8012FB342FBD1461EE3
:104A4000002200E0013216F8013F2E2BFAD0202B75
:104A5000F8D0B2FA82FC6E1C4FEA5C1C0CD0475DA9
:104A60002E2F00EB050604D106E016F8017D2E2F4F
:104A700002D015F1FF35F8D2A2424FF0000980F2C2
:104A800091804E46CA4607274FF0080825E02E2B96
:104A900047D0222B0BD07C2B09D0A3F12A0EBEF1DC
:104AA000050F48D9A3F13A0EBEF1050F58D895422B
:104AB00039D0B74229D34FF0000C5F2306F1010E25
:104AC00001EB060B5FFA8EF6062E8BF80D3000D840
:104AD0000E730132A24207DA835C202BD7D1013258
:104AE000A2424FF0000CF7DB4B7B202B3FF475AF5D
:104AF000BCF1000F47D01AEA090F18BF4FF00209A6
:104B000081F800900120BDE8F08F0A2F37D0954240
:104B100035DB2A460A2708264FF010084FF0000C14
:104B2000D7E79542DBD10A2F29D02A460A27082643
:104B30004FF01008CDE72D2BB9D1A3F1210EBEF116
:104B40005D0FB4D89542EED0B742DED3A3F1610E2B
:104B5000BEF1190F28D8203BDBB248EA0909ADE7BE
:104B6000A3F15B0EBEF1020FA1D9E6E717600719AA
:104B70004EE7FF2C3FF731AF651E234655E74B7BD1
:104B8000202B3FF42AAF0B7B0B4401207E243122E3
:104B900008705C739A73BDE8F08F10601C464FF08C
:104BA000FF3542E7CA469FE7A3F1410EBEF1190F58
:104BB00098BF48EA0A0A81E7010100352DE9F84368
:104BC0000F7B0E46044601F10D054FF002084FF031
:104BD0007E097068B16808EB00039BB240B10844DD
:104BE00011F8012B03EB4313534088429BB2F7D1DA
:104BF000032F28BF03273A1DD2B203F00F01B018CC
:104C0000013A0929D2B294BF3031373197424FEA85
:104C100013134173F1D3F319002183F80D9020464B
:104C2000FFF708FD01212046FFF7E4FC0B220346B5
:104C30000146A8B193F800E02846BEF1000F15D058
:104C4000DB7A1B07EED408F09BF90028EAD108F1C3
:104C500001081FFA88F8B8F1640FBAD1BDE8F883EB
:104C60006078B0FA80F04009BDE8F8830120BDE823
:104C7000F88300BF2DE9F04F0C7814F0700F8BB063
:104C800001D004781CB100200BB0BDE8F08F14787F
:104C9000D2F804B0A40740D14FF001090E46924665
:104CA0000990002130460F460893FFF7C3FC0AF134
:104CB0000D03079703973C46B84606970593756919
:104CC00001213046C5F34F15FFF794FC002800F092
:104CD000A1800378E52B39D0002B37D04C4538BF65
:104CE00000242E2B2FD0C27A0F2A3DD002F00802CA
:104CF00002F0FF033ABBB8F1000F40F066810B22CF
:104D0000059908F03DF90028D9D19AF80030DB0761
:104D100040F16F8101230693D1E7BF4D0BF10C04E5
:104D2000A5FB04494FEA990909F101095FFA89F9DC
:104D3000B4E7039A013AD2B29342039203D1437B80
:104D4000079A9A421BD04FF00008B8E7002C08BF22
:104D50002F464C453CBF0134E4B2002B5ED0E52B1E
:104D6000BFD14FF00008AAE7B8F1000FE1D15A0611
:104D7000A5D503F01F08437BCDF80C800793039B58
:104D8000013B03EB430503EB8505AB45DBD9C5EBE5
:104D90000B0C0023049018E0DAF80800D2B2A2F15C
:104DA000410E415CBEF1190F98BF2032A1F1410EB6
:104DB00098BFD2B2BEF1190F9CBF2031C9B2914247
:104DC000C1D101330D2B3FF47AAFDAB2042A05EBDF
:104DD00003010DD90A2A17D904985A1C00EB420284
:104DE00092889C450BD0FF2AD6D94FF0000866E781
:104DF000049A02EB43029C45B2F80120F3D1002A49
:104E000018BF4FF000085AE704985A1E00EB420200
:104E1000D288E6E77378002B7FF435AF089B03F068
:104E20004203422B7FF42FAF002C18BF3D464C4568
:104E300003D31AE0DCB2A14517D900213046FFF7B1
:104E4000D9FB631C0028F5D1737823B11BE7B36845
:104E50001B79012B09D8A14507D93046FFF7E4F8A3
:104E60001034E4B20028F2D10DE7069B33B151466D
:104E70003046FFF7A3FE00283FF405AF6901304636
:104E8000FFF7D8FB00283FF4FEAE09F1FF3818F019
:104E9000FF0866D048F04003DBB203934446002588
:104EA00000213046FFF7A6FB00283FF4ECAEB268C5
:104EB000039992F82430A04543F0010308BF8E46C1
:104EC0004FF00F0718BFA64682F824300AF10C01F4
:104ED000C772057380F800E00AF11707002311F884
:104EE00001CF5A0842EAC3135CFA83F38F42DBB264
:104EF000F5D10EF01F0E0EF1FF3E4373DAF80830C5
:104F000085760EEB4E020EEB820203EB0209C576AC
:104F100000230FE0042B19F8031000EB430EDFB25F
:104F200014D90A2F72D8AEF8041001330D2B02F1F8
:104F3000010212D09345EDD814BF4FF0FF3100218C
:104F4000042B89B200EB430EDFB2EAD801330D2BFC
:104F5000AEF8011002F10102ECD1013C14F0FF04A3
:104F60009ED1002130467569FFF744FBC5F34F150C
:104F7000044600283FF487AE2022002108F096F86E
:104F80005346264953F80D2F5868606022601A89ED
:104F90009B7AA37222819AF800200B6802F0180213
:104FA0002273002B3CD004F10E0104F1100098474D
:104FB000238AE189B26863822383E18292F82430F4
:104FC00043F0010382F8243017E0039A012A7FF4AA
:104FD0005AAE441E0A3014F8011F5A0842EAC3139D
:104FE00051FA83F3A042DBB2F5D1079A9A427FF4DB
:104FF0004AAE089B1F063FF546AECDF80080089BE1
:1050000009982A463146FFF75BFB3DE6013300EB8A
:105010004307B9808AE700BF4FECC44E7420FF1FDE
:1050200021212822A37308232174E37362744FF4AF
:10503000006142F62103BDE7F8B54368816800F1DD
:105040000C0604461868036832469B68984740B1CE
:1050500023789A07054607D423F0010323702846D6
:10506000F8BD00252846F8BD6368A16818681F6967
:105070000368324639449B6898470028F1D023786A
:10508000EAE700BFF8B583688B42064614460FD0A6
:105090000378DA070F4612D4630716D506F10C051C
:1050A000002304F003041C4334702846B760F8BDA5
:1050B00010F90C3B04F003041C433470F8BDFFF7F7
:1050C000BBFF0028E8D10020F8BD736818680368AA
:1050D00006F10C051B682A46394698470028DFD19F
:1050E000F1E700BF0378DB0701D401207047FFF729
:1050F000A3BF00BF837940690239994008447047D3
:1051000070B5C379202B04460D46164618D0102BD7
:1051100013D18369C1F307211944022200F50C70F1
:10512000FFF7B0FF48B1EDB230F81530E2699342B5
:105130009ABF01203360002070BD4FF0FF3070BD7A
:105140008169022201EBD51100F50C70FFF79AFF7F
:105150000028F2D005F07F0550F8253023F0704389
:10516000E4E700BF38B5C379202B0C46154614D0B0
:10517000102B01D0002038BD8369C1F307211944E9
:1051800000F50C700322FFF77DFF03460028F1D0E5
:10519000E4B2012023F8145038BD8169032200F5E0
:1051A0000C7001EBD411FFF76DFF03460028E1D02E
:1051B00004F07F04012043F8245038BD2DE9F0416C
:1051C000054682B090460F46C1B9C668344604E031
:1051D00001D0019BA3B1B4420BD0EB6901349C42D6
:1051E00088BF0224214601AA2846FFF789FF00282C
:1051F000EEDA0026304602B0BDE8F0810E46E5E763
:105200006FF0704221462846FFF7ACFF06460028A3
:10521000EFD037B9EC603046C8F8004002B0BDE8C6
:10522000F081394628462246FFF79CFF0028F2D13C
:10523000DFE700BF70B5054682B00C4608E0FFF717
:1052400091FF80B1EB689C4238BFEC60019C5EB17D
:1052500001AA21462846FFF753FF061E21464FF0BC
:1052600000022846EBDA002002B070BDF8B5044613
:1052700000224FF0FF330120A462C4F83442E06002
:10528000E27184F8242084F83022E362C4F83832D2
:105290000D46C1B1042901D90020F8BD04F124064E
:1052A00030461146FFF7EEFE0028F5D000EB05135F
:1052B00093F8AE315B06EFD11B3500EB0515D5F841
:1052C000065015B9E8E704F12406304600222946C5
:1052D000FFF7D8FE0028DFD0B0F80B30B3F5007F21
:1052E000DAD1037C022BD7D1C389002BD4D0467BE3
:1052F0002671731E0021012E6371A1710ED0012150
:105300000A4600E019465200D2B24B1C9642DBB26C
:1053100003D0092BF6D1A171BEE7A171C38A4BB3AB
:105320001F462761C6892E44A661B0F8113023813B
:105330005A0102F2FF1206EB470303EB622262619D
:105340002362B0F8133003B9036AAD1A1D4425FA7D
:1053500001F140F6F4734A1C9942E2610CD94FF610
:10536000F473994285BFC36A236210232023E3713B
:105370000120F8BD476AD4E70C23E3718CE700BF36
:10538000034B04481B681840B0FA80F0400970478E
:1053900030100B4001000F00024B186800F00100B4
:1053A000704700BF24100B40014B1878704700BFB6
:1053B000B820FF1F4FF47A722C4B02FB00F098428A
:1053C000F0B44BD82A4D0822012149000B01B5FB4E
:1053D000F3F39842264C3DD2013AF6D1B4FBF1F4F6
:1053E0004B081F02A0423DD2214E4B00012200E09B
:1053F0002346B6FBF3F4A04202F1010503EB0104DE
:1054000026D2102D2A46F3D1F0221A4E1A4C1848F3
:105410001A494FF47A7505FB03F3B0FBF3F33360DD
:10542000236823F008032360206820F47F2323F4FB
:105430007F6343F460233B431A4322600B681B07DE
:10544000FCD50D4A136843F008031360F0BC7047A5
:105450001201DAE7B4FBF1F4CF01C3E7044C0027F3
:105460000121BFE70B460022CFE700BFDF707200CB
:10547000000E2707BC20FF1F2C100B4024100B40F0
:1054800001207047F8B5054602F0BCFC064F064601
:1054900004E002F0B7FC801BB84203D8A8470446DA
:1054A0000028F6D12046F8BD20A107002DE9F041E3
:1054B000DFF840800E4FC8F80000054602F0A2FC5D
:1054C000064606E002F09EFC801BB8420AD804F0B3
:1054D00001FCA84704460028F4D1C8F80000204683
:1054E000BDE8F0810023C8F800302046BDE8F08117
:1054F00020A107008020FF1F38B504460F480D4645
:10550000FFF7C0FF08B1002038BD0D4A0D4B1560F4
:105510000D481C60FFF7B6FF0028F4D10B4A0C4B76
:1055200011681960196811601A68D207EBD51B68F9
:1055300013F4702FE7D1012038BD00BF995300004C
:1055400008100B400C100B408153000030100B4032
:10555000A020FF1F30B5154B85B00D461968FFF729
:10556000CBFF00B3124A134B1268009219680191E5
:1055700059680291083305F10F041B680393002357
:1055800001E051F8102C03F00301C9000133CA40B7
:105590000DF1100E23F003010F2B714404F8012DBF
:1055A000EFD10023EB7305B030BD00BF8C20FF1F8F
:1055B00010100B4014100B4008B5074B0748196832
:1055C000FFF79AFF30B1064B186880F48070C0F383
:1055D000002008BD012008BD8C20FF1F00001A0D0F
:1055E00010100B40054B186810F0020005D01B6826
:1055F00003481840B0FA80F040097047A020FF1F10
:1056000000007F11F8B5940700D143B91E491F4B24
:1056100060204FF4A57208701A600020F8BD07469C
:105620001B481D460E461446FFF740FF08BB194BAA
:1056300019491A4A4FF0010E83F800E0184B086030
:105640001B781460EBB971022B041648164E174CE8
:10565000174A184D316043F4007303602560164803
:105660001760FFF723FF0028D7D1BDE8F840FFF708
:10567000B9BF0549054B292040F24D1208701A6048
:10568000CBE73146E0E700BF0907FF1F7C20FF1F83
:10569000B9550000B820FF1FA020FF1F00100B40CD
:1056A0008420FF1F04100B4008100B4038100B40E3
:1056B0000C100B4002007F11A953000030B5930776
:1056C000ADF5017D11D0154601236A461048FFF75C
:1056D00099FF044680B1694628464FF4007202F0F3
:1056E0002BF820460DF5017D30BD01230848FFF75A
:1056F00089FF04460028F4D10649074B31200024D5
:1057000040F25122087020461A600DF5017D30BD2F
:1057100011003A110907FF1F7C20FF1F10B59307E6
:10572000ADF5007D0C4606D0114668464FF4007278
:1057300002F002F86A46214601230748FFF762FF9C
:1057400030B90649064B322440F2C9220C701A6067
:105750000DF5007D10BD00BF01003A180907FF1FBD
:105760007C20FF1F2DE9F041940715D00646BBB100
:1057700015460C4601EB030801E0A04510D0316846
:105780002A460F6830462146B847013405F50075B2
:105790000028F2D1BDE8F0810748FFF733FF10B1D0
:1057A0000120BDE8F0810549054B312440F2632218
:1057B0000C701A60BDE8F08137003A120907FF1F2C
:1057C0007C20FF1F2DE9F041940715D00646BBB1A0
:1057D00015460C4601EB030801E0A04510D03168E6
:1057E0002A468F6830462146B847013405F50075D2
:1057F0000028F2D1BDE8F0810748FFF703FF10B1A0
:105800000120BDE8F0810549054B332440F2D9223F
:105810000C701A60BDE8F08127003A190907FF1FD4
:105820007C20FF1FF8B5044619480D46FFF72AFEF5
:1058300038B11849184B2920E72208701A60002057
:10584000F8BD164F164B174ADFF878E0164E174989
:105850004FF0010C87F800C01860154B1560154F0C
:10586000154D164ACEF80040154837600D601A6095
:10587000FFF71CFE18B9FFF7B5FE00B1F8BD0549EA
:10588000054B2320F12208701A600020F8BD00BFEC
:10589000B95500000907FF1F7C20FF1FB820FF1F1C
:1058A000A020FF1F00100B4004100B4038100B40CD
:1058B0000C100B404000010002007F1111003A065D
:1058C000A953000008100B4010B4074C074A0849C0
:1058D00008480023236014680C60096811605DF8B3
:1058E000044B0370704700BF38100B4030100B4062
:1058F000A020FF1FB820FF1F2DE9F04FAE4DAF488D
:10590000DFF83483AE4FAF4EAF49DFF830E3AF4C32
:1059100000232B70026888F8003042F040623B7030
:10592000337002600A6842F400320A6000F57E308B
:1059300001F59F4104305C31CEF8003003602360F4
:105940000B6001F5C821A24AC36020314FF080707E
:10595000136091B00A46086013689E4CD901FBD4CD
:105960004FF4C870FFF726FDDFF8D4E2DFF8CCC2B1
:105970009648994A994940F24343CCF80030CEF812
:1059800000304FF4886EC0F800E0136002F5C822C2
:1059900028320B60C3609249924B9348106060209C
:1059A0004FF4003208701A60236843F000632360EC
:1059B000216811F00061FBD10846FFF79DFD044608
:1059C00000284ED00A244FF4D5718848FFF794FD83
:1059D00000285DD1013CF6D13378854E002B08BFFD
:1059E0004FF4401602F00EFA824C814600218248A4
:1059F000FFF782FD50B9814A4FF4EF7143231160E4
:105A00002B700024204611B0BDE8F08F31467C4851
:105A1000FFF772FD0028EED002F0F4F9794B754AD9
:105A2000C9EB00009842E6D82368002BDEDA764BFB
:105A300011681960136875485A0048BF01234FF078
:105A4000000148BF3B70FFF757FD044698B96B4A09
:105A50004FF4F4712123204611602B7011B0BDE882
:105A6000F08F664A40F2CD112023204611602B7042
:105A700011B0BDE8F08F00216548FFF73DFD0446F9
:105A8000D0B95E4A40F2EB11222311602B70B9E7C6
:105A9000584B1B68B3F5D57F0AD0584A002440F212
:105AA000D3112523204611602B7011B0BDE8F08F73
:105AB000012333704E4E95E74E4B564E1B685649A8
:105AC00056481B0C1B043360FFF744FD044630B9F5
:105AD0004A4A4FF4F871262311602B7092E750491F
